{
    "_format": "hh-sol-artifact-1",
    "contractName": "TheNFTFortress",
    "sourceName": "contracts/TheFortressNFT.sol",
    "abi": [
        {
            "inputs": [],
            "stateMutability": "payable",
            "type": "constructor"
        },
        {
            "anonymous": false,
            "inputs": [
                {
                    "indexed": true,
                    "internalType": "address",
                    "name": "owner",
                    "type": "address"
                },
                {
                    "indexed": true,
                    "internalType": "address",
                    "name": "approved",
                    "type": "address"
                },
                {
                    "indexed": true,
                    "internalType": "uint256",
                    "name": "tokenId",
                    "type": "uint256"
                }
            ],
            "name": "Approval",
            "type": "event"
        },
        {
            "anonymous": false,
            "inputs": [
                {
                    "indexed": true,
                    "internalType": "address",
                    "name": "owner",
                    "type": "address"
                },
                {
                    "indexed": true,
                    "internalType": "address",
                    "name": "operator",
                    "type": "address"
                },
                {
                    "indexed": false,
                    "internalType": "bool",
                    "name": "approved",
                    "type": "bool"
                }
            ],
            "name": "ApprovalForAll",
            "type": "event"
        },
        {
            "anonymous": false,
            "inputs": [
                {
                    "indexed": true,
                    "internalType": "address",
                    "name": "previousOwner",
                    "type": "address"
                },
                {
                    "indexed": true,
                    "internalType": "address",
                    "name": "newOwner",
                    "type": "address"
                }
            ],
            "name": "OwnershipTransferred",
            "type": "event"
        },
        {
            "anonymous": false,
            "inputs": [
                {
                    "indexed": true,
                    "internalType": "address",
                    "name": "from",
                    "type": "address"
                },
                {
                    "indexed": true,
                    "internalType": "address",
                    "name": "to",
                    "type": "address"
                },
                {
                    "indexed": true,
                    "internalType": "uint256",
                    "name": "tokenId",
                    "type": "uint256"
                }
            ],
            "name": "Transfer",
            "type": "event"
        },
        {
            "inputs": [
                {
                    "internalType": "address",
                    "name": "to",
                    "type": "address"
                },
                {
                    "internalType": "uint256",
                    "name": "tokenId",
                    "type": "uint256"
                }
            ],
            "name": "approve",
            "outputs": [],
            "stateMutability": "nonpayable",
            "type": "function"
        },
        {
            "inputs": [
                {
                    "internalType": "address",
                    "name": "owner",
                    "type": "address"
                }
            ],
            "name": "balanceOf",
            "outputs": [
                {
                    "internalType": "uint256",
                    "name": "",
                    "type": "uint256"
                }
            ],
            "stateMutability": "view",
            "type": "function"
        },
        {
            "inputs": [
                {
                    "internalType": "uint256",
                    "name": "tokenId",
                    "type": "uint256"
                }
            ],
            "name": "getApproved",
            "outputs": [
                {
                    "internalType": "address",
                    "name": "",
                    "type": "address"
                }
            ],
            "stateMutability": "view",
            "type": "function"
        },
        {
            "inputs": [
                {
                    "internalType": "address",
                    "name": "owner",
                    "type": "address"
                },
                {
                    "internalType": "address",
                    "name": "operator",
                    "type": "address"
                }
            ],
            "name": "isApprovedForAll",
            "outputs": [
                {
                    "internalType": "bool",
                    "name": "",
                    "type": "bool"
                }
            ],
            "stateMutability": "view",
            "type": "function"
        },
        {
            "inputs": [],
            "name": "isMintEnabled",
            "outputs": [
                {
                    "internalType": "bool",
                    "name": "",
                    "type": "bool"
                }
            ],
            "stateMutability": "view",
            "type": "function"
        },
        {
            "inputs": [],
            "name": "maxPerWallet",
            "outputs": [
                {
                    "internalType": "uint256",
                    "name": "",
                    "type": "uint256"
                }
            ],
            "stateMutability": "view",
            "type": "function"
        },
        {
            "inputs": [],
            "name": "maxSupply",
            "outputs": [
                {
                    "internalType": "uint256",
                    "name": "",
                    "type": "uint256"
                }
            ],
            "stateMutability": "view",
            "type": "function"
        },
        {
            "inputs": [
                {
                    "internalType": "uint256",
                    "name": "quantity_",
                    "type": "uint256"
                }
            ],
            "name": "mint",
            "outputs": [],
            "stateMutability": "payable",
            "type": "function"
        },
        {
            "inputs": [],
            "name": "mintPrice",
            "outputs": [
                {
                    "internalType": "uint256",
                    "name": "",
                    "type": "uint256"
                }
            ],
            "stateMutability": "view",
            "type": "function"
        },
        {
            "inputs": [
                {
                    "internalType": "address",
                    "name": "",
                    "type": "address"
                }
            ],
            "name": "mintedWallets",
            "outputs": [
                {
                    "internalType": "uint256",
                    "name": "",
                    "type": "uint256"
                }
            ],
            "stateMutability": "view",
            "type": "function"
        },
        {
            "inputs": [],
            "name": "name",
            "outputs": [
                {
                    "internalType": "string",
                    "name": "",
                    "type": "string"
                }
            ],
            "stateMutability": "view",
            "type": "function"
        },
        {
            "inputs": [],
            "name": "owner",
            "outputs": [
                {
                    "internalType": "address",
                    "name": "",
                    "type": "address"
                }
            ],
            "stateMutability": "view",
            "type": "function"
        },
        {
            "inputs": [
                {
                    "internalType": "uint256",
                    "name": "tokenId",
                    "type": "uint256"
                }
            ],
            "name": "ownerOf",
            "outputs": [
                {
                    "internalType": "address",
                    "name": "",
                    "type": "address"
                }
            ],
            "stateMutability": "view",
            "type": "function"
        },
        {
            "inputs": [],
            "name": "renounceOwnership",
            "outputs": [],
            "stateMutability": "nonpayable",
            "type": "function"
        },
        {
            "inputs": [
                {
                    "internalType": "address",
                    "name": "from",
                    "type": "address"
                },
                {
                    "internalType": "address",
                    "name": "to",
                    "type": "address"
                },
                {
                    "internalType": "uint256",
                    "name": "tokenId",
                    "type": "uint256"
                }
            ],
            "name": "safeTransferFrom",
            "outputs": [],
            "stateMutability": "nonpayable",
            "type": "function"
        },
        {
            "inputs": [
                {
                    "internalType": "address",
                    "name": "from",
                    "type": "address"
                },
                {
                    "internalType": "address",
                    "name": "to",
                    "type": "address"
                },
                {
                    "internalType": "uint256",
                    "name": "tokenId",
                    "type": "uint256"
                },
                {
                    "internalType": "bytes",
                    "name": "_data",
                    "type": "bytes"
                }
            ],
            "name": "safeTransferFrom",
            "outputs": [],
            "stateMutability": "nonpayable",
            "type": "function"
        },
        {
            "inputs": [
                {
                    "internalType": "address payable",
                    "name": "recipient",
                    "type": "address"
                }
            ],
            "name": "sendEther",
            "outputs": [],
            "stateMutability": "nonpayable",
            "type": "function"
        },
        {
            "inputs": [
                {
                    "internalType": "address",
                    "name": "operator",
                    "type": "address"
                },
                {
                    "internalType": "bool",
                    "name": "approved",
                    "type": "bool"
                }
            ],
            "name": "setApprovalForAll",
            "outputs": [],
            "stateMutability": "nonpayable",
            "type": "function"
        },
        {
            "inputs": [
                {
                    "internalType": "string",
                    "name": "baseTokenUri_",
                    "type": "string"
                }
            ],
            "name": "setBaseTokenUri",
            "outputs": [],
            "stateMutability": "nonpayable",
            "type": "function"
        },
        {
            "inputs": [
                {
                    "internalType": "uint256",
                    "name": "maxPerWallet_",
                    "type": "uint256"
                }
            ],
            "name": "setMaxPerWallet",
            "outputs": [],
            "stateMutability": "nonpayable",
            "type": "function"
        },
        {
            "inputs": [
                {
                    "internalType": "uint256",
                    "name": "maxSupply_",
                    "type": "uint256"
                }
            ],
            "name": "setMaxSupply",
            "outputs": [],
            "stateMutability": "nonpayable",
            "type": "function"
        },
        {
            "inputs": [
                {
                    "internalType": "bytes4",
                    "name": "interfaceId",
                    "type": "bytes4"
                }
            ],
            "name": "supportsInterface",
            "outputs": [
                {
                    "internalType": "bool",
                    "name": "",
                    "type": "bool"
                }
            ],
            "stateMutability": "view",
            "type": "function"
        },
        {
            "inputs": [],
            "name": "symbol",
            "outputs": [
                {
                    "internalType": "string",
                    "name": "",
                    "type": "string"
                }
            ],
            "stateMutability": "view",
            "type": "function"
        },
        {
            "inputs": [],
            "name": "toggleIsMintEnabled",
            "outputs": [],
            "stateMutability": "nonpayable",
            "type": "function"
        },
        {
            "inputs": [
                {
                    "internalType": "uint256",
                    "name": "tokenId_",
                    "type": "uint256"
                }
            ],
            "name": "tokenURI",
            "outputs": [
                {
                    "internalType": "string",
                    "name": "",
                    "type": "string"
                }
            ],
            "stateMutability": "view",
            "type": "function"
        },
        {
            "inputs": [],
            "name": "totalSupply",
            "outputs": [
                {
                    "internalType": "uint256",
                    "name": "",
                    "type": "uint256"
                }
            ],
            "stateMutability": "view",
            "type": "function"
        },
        {
            "inputs": [
                {
                    "internalType": "address",
                    "name": "from",
                    "type": "address"
                },
                {
                    "internalType": "address",
                    "name": "to",
                    "type": "address"
                },
                {
                    "internalType": "uint256",
                    "name": "tokenId",
                    "type": "uint256"
                }
            ],
            "name": "transferFrom",
            "outputs": [],
            "stateMutability": "nonpayable",
            "type": "function"
        },
        {
            "inputs": [
                {
                    "internalType": "address",
                    "name": "newOwner",
                    "type": "address"
                }
            ],
            "name": "transferOwnership",
            "outputs": [],
            "stateMutability": "nonpayable",
            "type": "function"
        },
        {
            "inputs": [],
            "name": "withdraw",
            "outputs": [],
            "stateMutability": "nonpayable",
            "type": "function"
        },
        {
            "inputs": [
                {
                    "internalType": "uint256",
                    "name": "portion",
                    "type": "uint256"
                }
            ],
            "name": "withdrawPortion",
            "outputs": [],
            "stateMutability": "nonpayable",
            "type": "function"
        },
        {
            "inputs": [],
            "name": "withdrawWallet",
            "outputs": [
                {
                    "internalType": "address payable",
                    "name": "",
                    "type": "address"
                }
            ],
            "stateMutability": "view",
            "type": "function"
        }
    ],
    "bytecode": "0x60806040526040518060400160405280600d81526020017f4d79466f7274726573734e4654000000000000000000000000000000000000008152506040518060400160405280600481526020017f464f525400000000000000000000000000000000000000000000000000000000815250816000908051906020019062000088929190620001bf565b508060019080519060200190620000a1929190620001bf565b505050620000c4620000b8620000f160201b60201c565b620000f960201b60201c565b66b1a2bc2ec5000060078190555060006008819055506127106009819055506005600a81905550620002d4565b600033905090565b6000600660009054906101000a900473ffffffffffffffffffffffffffffffffffffffff16905081600660006101000a81548173ffffffffffffffffffffffffffffffffffffffff021916908373ffffffffffffffffffffffffffffffffffffffff1602179055508173ffffffffffffffffffffffffffffffffffffffff168173ffffffffffffffffffffffffffffffffffffffff167f8be0079c531659141344cd1fd0a4f28419497f9722a3daafe3b4186f6b6457e060405160405180910390a35050565b828054620001cd906200026f565b90600052602060002090601f016020900481019282620001f157600085556200023d565b82601f106200020c57805160ff19168380011785556200023d565b828001600101855582156200023d579182015b828111156200023c5782518255916020019190600101906200021f565b5b5090506200024c919062000250565b5090565b5b808211156200026b57600081600090555060010162000251565b5090565b600060028204905060018216806200028857607f821691505b602082108114156200029f576200029e620002a5565b5b50919050565b7f4e487b7100000000000000000000000000000000000000000000000000000000600052602260045260246000fd5b613c4d80620002e46000396000f3fe6080604052600436106101d85760003560e01c8063715018a611610102578063ada7c4ed11610095578063d5abeb0111610064578063d5abeb0114610675578063e268e4d3146106a0578063e985e9c5146106c9578063f2fde38b14610706576101d8565b8063ada7c4ed146105bb578063b88d4fde146105f8578063c407321714610621578063c87b56dd14610638576101d8565b806395652cfa116100d157806395652cfa1461052257806395d89b411461054b578063a0712d6814610576578063a22cb46514610592576101d8565b8063715018a61461048c57806385d178f4146104a357806386c34401146104ce5780638da5cb5b146104f7576101d8565b80633ccfd60b1161017a5780636352211e116101495780636352211e146103be5780636817c76c146103fb5780636f8b44b01461042657806370a082311461044f576101d8565b80633ccfd60b1461032a57806342842e0e14610341578063453c23101461036a57806348c981e214610395576101d8565b8063095ea7b3116101b6578063095ea7b31461028257806318160ddd146102ab57806323b872dd146102d6578063346de50a146102ff576101d8565b806301ffc9a7146101dd57806306fdde031461021a578063081812fc14610245575b600080fd5b3480156101e957600080fd5b5061020460048036038101906101ff91906128a6565b61072f565b6040516102119190612ed2565b60405180910390f35b34801561022657600080fd5b5061022f610811565b60405161023c9190612eed565b60405180910390f35b34801561025157600080fd5b5061026c6004803603810190610267919061293d565b6108a3565b6040516102799190612e50565b60405180910390f35b34801561028e57600080fd5b506102a960048036038101906102a4919061286a565b610928565b005b3480156102b757600080fd5b506102c0610a40565b6040516102cd91906131cf565b60405180910390f35b3480156102e257600080fd5b506102fd60048036038101906102f89190612764565b610a46565b005b34801561030b57600080fd5b50610314610aa6565b6040516103219190612ed2565b60405180910390f35b34801561033657600080fd5b5061033f610ab9565b005b34801561034d57600080fd5b5061036860048036038101906103639190612764565b610beb565b005b34801561037657600080fd5b5061037f610c0b565b60405161038c91906131cf565b60405180910390f35b3480156103a157600080fd5b506103bc60048036038101906103b791906126ff565b610c11565b005b3480156103ca57600080fd5b506103e560048036038101906103e0919061293d565b610cdf565b6040516103f29190612e50565b60405180910390f35b34801561040757600080fd5b50610410610d91565b60405161041d91906131cf565b60405180910390f35b34801561043257600080fd5b5061044d6004803603810190610448919061293d565b610d97565b005b34801561045b57600080fd5b50610476600480360381019061047191906126d6565b610e1d565b60405161048391906131cf565b60405180910390f35b34801561049857600080fd5b506104a1610ed5565b005b3480156104af57600080fd5b506104b8610f5d565b6040516104c59190612e6b565b60405180910390f35b3480156104da57600080fd5b506104f560048036038101906104f0919061293d565b610f83565b005b34801561050357600080fd5b5061050c611049565b6040516105199190612e50565b60405180910390f35b34801561052e57600080fd5b50610549600480360381019061054491906128f8565b611073565b005b34801561055757600080fd5b50610560611105565b60405161056d9190612eed565b60405180910390f35b610590600480360381019061058b919061293d565b611197565b005b34801561059e57600080fd5b506105b960048036038101906105b4919061282e565b611408565b005b3480156105c757600080fd5b506105e260048036038101906105dd91906126d6565b61141e565b6040516105ef91906131cf565b60405180910390f35b34801561060457600080fd5b5061061f600480360381019061061a91906127b3565b611436565b005b34801561062d57600080fd5b50610636611498565b005b34801561064457600080fd5b5061065f600480360381019061065a919061293d565b611540565b60405161066c9190612eed565b60405180910390f35b34801561068157600080fd5b5061068a6115bc565b60405161069791906131cf565b60405180910390f35b3480156106ac57600080fd5b506106c760048036038101906106c2919061293d565b6115c2565b005b3480156106d557600080fd5b506106f060048036038101906106eb9190612728565b611648565b6040516106fd9190612ed2565b60405180910390f35b34801561071257600080fd5b5061072d600480360381019061072891906126d6565b6116dc565b005b60007f80ac58cd000000000000000000000000000000000000000000000000000000007bffffffffffffffffffffffffffffffffffffffffffffffffffffffff1916827bffffffffffffffffffffffffffffffffffffffffffffffffffffffff191614806107fa57507f5b5e139f000000000000000000000000000000000000000000000000000000007bffffffffffffffffffffffffffffffffffffffffffffffffffffffff1916827bffffffffffffffffffffffffffffffffffffffffffffffffffffffff1916145b8061080a5750610809826117d4565b5b9050919050565b60606000805461082090613480565b80601f016020809104026020016040519081016040528092919081815260200182805461084c90613480565b80156108995780601f1061086e57610100808354040283529160200191610899565b820191906000526020600020905b81548152906001019060200180831161087c57829003601f168201915b5050505050905090565b60006108ae8261183e565b6108ed576040517f08c379a00000000000000000000000000000000000000000000000000000000081526004016108e4906130ef565b60405180910390fd5b6004600083815260200190815260200160002060009054906101000a900473ffffffffffffffffffffffffffffffffffffffff169050919050565b600061093382610cdf565b90508073ffffffffffffffffffffffffffffffffffffffff168373ffffffffffffffffffffffffffffffffffffffff1614156109a4576040517f08c379a000000000000000000000000000000000000000000000000000000000815260040161099b9061312f565b60405180910390fd5b8073ffffffffffffffffffffffffffffffffffffffff166109c36118aa565b73ffffffffffffffffffffffffffffffffffffffff1614806109f257506109f1816109ec6118aa565b611648565b5b610a31576040517f08c379a0000000000000000000000000000000000000000000000000000000008152600401610a289061306f565b60405180910390fd5b610a3b83836118b2565b505050565b60085481565b610a57610a516118aa565b8261196b565b610a96576040517f08c379a0000000000000000000000000000000000000000000000000000000008152600401610a8d9061314f565b60405180910390fd5b610aa1838383611a49565b505050565b600b60009054906101000a900460ff1681565b610ac16118aa565b73ffffffffffffffffffffffffffffffffffffffff16610adf611049565b73ffffffffffffffffffffffffffffffffffffffff1614610b35576040517f08c379a0000000000000000000000000000000000000000000000000000000008152600401610b2c9061310f565b60405180910390fd5b6000610b3f611049565b73ffffffffffffffffffffffffffffffffffffffff1647604051610b6290612e3b565b60006040518083038185875af1925050503d8060008114610b9f576040519150601f19603f3d011682016040523d82523d6000602084013e610ba4565b606091505b5050905080610be8576040517f08c379a0000000000000000000000000000000000000000000000000000000008152600401610bdf9061318f565b60405180910390fd5b50565b610c0683838360405180602001604052806000815250611436565b505050565b600a5481565b610c196118aa565b73ffffffffffffffffffffffffffffffffffffffff16610c37611049565b73ffffffffffffffffffffffffffffffffffffffff1614610c8d576040517f08c379a0000000000000000000000000000000000000000000000000000000008152600401610c849061310f565b60405180910390fd5b8073ffffffffffffffffffffffffffffffffffffffff166108fc670de0b6b3a76400009081150290604051600060405180830381858888f19350505050158015610cdb573d6000803e3d6000fd5b5050565b6000806002600084815260200190815260200160002060009054906101000a900473ffffffffffffffffffffffffffffffffffffffff169050600073ffffffffffffffffffffffffffffffffffffffff168173ffffffffffffffffffffffffffffffffffffffff161415610d88576040517f08c379a0000000000000000000000000000000000000000000000000000000008152600401610d7f906130af565b60405180910390fd5b80915050919050565b60075481565b610d9f6118aa565b73ffffffffffffffffffffffffffffffffffffffff16610dbd611049565b73ffffffffffffffffffffffffffffffffffffffff1614610e13576040517f08c379a0000000000000000000000000000000000000000000000000000000008152600401610e0a9061310f565b60405180910390fd5b8060098190555050565b60008073ffffffffffffffffffffffffffffffffffffffff168273ffffffffffffffffffffffffffffffffffffffff161415610e8e576040517f08c379a0000000000000000000000000000000000000000000000000000000008152600401610e859061308f565b60405180910390fd5b600360008373ffffffffffffffffffffffffffffffffffffffff1673ffffffffffffffffffffffffffffffffffffffff168152602001908152602001600020549050919050565b610edd6118aa565b73ffffffffffffffffffffffffffffffffffffffff16610efb611049565b73ffffffffffffffffffffffffffffffffffffffff1614610f51576040517f08c379a0000000000000000000000000000000000000000000000000000000008152600401610f489061310f565b60405180910390fd5b610f5b6000611cb0565b565b600e60009054906101000a900473ffffffffffffffffffffffffffffffffffffffff1681565b610f8b6118aa565b73ffffffffffffffffffffffffffffffffffffffff16610fa9611049565b73ffffffffffffffffffffffffffffffffffffffff1614610fff576040517f08c379a0000000000000000000000000000000000000000000000000000000008152600401610ff69061310f565b60405180910390fd5b3373ffffffffffffffffffffffffffffffffffffffff166108fc829081150290604051600060405180830381858888f19350505050158015611045573d6000803e3d6000fd5b5050565b6000600660009054906101000a900473ffffffffffffffffffffffffffffffffffffffff16905090565b61107b6118aa565b73ffffffffffffffffffffffffffffffffffffffff16611099611049565b73ffffffffffffffffffffffffffffffffffffffff16146110ef576040517f08c379a00000000000000000000000000000000000000000000000000000000081526004016110e69061310f565b60405180910390fd5b8181600d9190611100929190612503565b505050565b60606001805461111490613480565b80601f016020809104026020016040519081016040528092919081815260200182805461114090613480565b801561118d5780601f106111625761010080835404028352916020019161118d565b820191906000526020600020905b81548152906001019060200180831161117057829003601f168201915b5050505050905090565b600b60009054906101000a900460ff166111e6576040517f08c379a00000000000000000000000000000000000000000000000000000000081526004016111dd90612f4f565b60405180910390fd5b600a5481600c60003373ffffffffffffffffffffffffffffffffffffffff1673ffffffffffffffffffffffffffffffffffffffff1681526020019081526020016000205461123491906132a3565b1115611275576040517f08c379a000000000000000000000000000000000000000000000000000000000815260040161126c906131af565b60405180910390fd5b60075481611283919061332a565b34146112c4576040517f08c379a00000000000000000000000000000000000000000000000000000000081526004016112bb90612f0f565b60405180910390fd5b6009546008541461130a576040517f08c379a00000000000000000000000000000000000000000000000000000000081526004016113019061304f565b60405180910390fd5b6009548160085461131b91906132a3565b1161135b576040517f08c379a000000000000000000000000000000000000000000000000000000000815260040161135290612fcf565b60405180910390fd5b60005b8181101561140457600c60003373ffffffffffffffffffffffffffffffffffffffff1673ffffffffffffffffffffffffffffffffffffffff16815260200190815260200160002060008154809291906113b6906134e3565b9190505550600860008154809291906113ce906134e3565b9190505550600060016008546113e491906132a3565b90506113f03382611d76565b5080806113fc906134e3565b91505061135e565b5050565b61141a6114136118aa565b8383611d94565b5050565b600c6020528060005260406000206000915090505481565b6114476114416118aa565b8361196b565b611486576040517f08c379a000000000000000000000000000000000000000000000000000000000815260040161147d9061314f565b60405180910390fd5b61149284848484611f01565b50505050565b6114a06118aa565b73ffffffffffffffffffffffffffffffffffffffff166114be611049565b73ffffffffffffffffffffffffffffffffffffffff1614611514576040517f08c379a000000000000000000000000000000000000000000000000000000000815260040161150b9061310f565b60405180910390fd5b600b60009054906101000a900460ff1615600b60006101000a81548160ff021916908315150217905550565b606061154b8261183e565b61158a576040517f08c379a00000000000000000000000000000000000000000000000000000000081526004016115819061316f565b60405180910390fd5b600d61159583611f5d565b6040516020016115a6929190612e0c565b6040516020818303038152906040529050919050565b60095481565b6115ca6118aa565b73ffffffffffffffffffffffffffffffffffffffff166115e8611049565b73ffffffffffffffffffffffffffffffffffffffff161461163e576040517f08c379a00000000000000000000000000000000000000000000000000000000081526004016116359061310f565b60405180910390fd5b80600a8190555050565b6000600560008473ffffffffffffffffffffffffffffffffffffffff1673ffffffffffffffffffffffffffffffffffffffff16815260200190815260200160002060008373ffffffffffffffffffffffffffffffffffffffff1673ffffffffffffffffffffffffffffffffffffffff16815260200190815260200160002060009054906101000a900460ff16905092915050565b6116e46118aa565b73ffffffffffffffffffffffffffffffffffffffff16611702611049565b73ffffffffffffffffffffffffffffffffffffffff1614611758576040517f08c379a000000000000000000000000000000000000000000000000000000000815260040161174f9061310f565b60405180910390fd5b600073ffffffffffffffffffffffffffffffffffffffff168173ffffffffffffffffffffffffffffffffffffffff1614156117c8576040517f08c379a00000000000000000000000000000000000000000000000000000000081526004016117bf90612f6f565b60405180910390fd5b6117d181611cb0565b50565b60007f01ffc9a7000000000000000000000000000000000000000000000000000000007bffffffffffffffffffffffffffffffffffffffffffffffffffffffff1916827bffffffffffffffffffffffffffffffffffffffffffffffffffffffff1916149050919050565b60008073ffffffffffffffffffffffffffffffffffffffff166002600084815260200190815260200160002060009054906101000a900473ffffffffffffffffffffffffffffffffffffffff1673ffffffffffffffffffffffffffffffffffffffff1614159050919050565b600033905090565b816004600083815260200190815260200160002060006101000a81548173ffffffffffffffffffffffffffffffffffffffff021916908373ffffffffffffffffffffffffffffffffffffffff160217905550808273ffffffffffffffffffffffffffffffffffffffff1661192583610cdf565b73ffffffffffffffffffffffffffffffffffffffff167f8c5be1e5ebec7d5bd14f71427d1e84f3dd0314c0f7b2291e5b200ac8c7c3b92560405160405180910390a45050565b60006119768261183e565b6119b5576040517f08c379a00000000000000000000000000000000000000000000000000000000081526004016119ac9061302f565b60405180910390fd5b60006119c083610cdf565b90508073ffffffffffffffffffffffffffffffffffffffff168473ffffffffffffffffffffffffffffffffffffffff161480611a025750611a018185611648565b5b80611a4057508373ffffffffffffffffffffffffffffffffffffffff16611a28846108a3565b73ffffffffffffffffffffffffffffffffffffffff16145b91505092915050565b8273ffffffffffffffffffffffffffffffffffffffff16611a6982610cdf565b73ffffffffffffffffffffffffffffffffffffffff1614611abf576040517f08c379a0000000000000000000000000000000000000000000000000000000008152600401611ab690612f8f565b60405180910390fd5b600073ffffffffffffffffffffffffffffffffffffffff168273ffffffffffffffffffffffffffffffffffffffff161415611b2f576040517f08c379a0000000000000000000000000000000000000000000000000000000008152600401611b2690612fef565b60405180910390fd5b611b3a83838361210a565b611b456000826118b2565b6001600360008573ffffffffffffffffffffffffffffffffffffffff1673ffffffffffffffffffffffffffffffffffffffff1681526020019081526020016000206000828254611b959190613384565b925050819055506001600360008473ffffffffffffffffffffffffffffffffffffffff1673ffffffffffffffffffffffffffffffffffffffff1681526020019081526020016000206000828254611bec91906132a3565b92505081905550816002600083815260200190815260200160002060006101000a81548173ffffffffffffffffffffffffffffffffffffffff021916908373ffffffffffffffffffffffffffffffffffffffff160217905550808273ffffffffffffffffffffffffffffffffffffffff168473ffffffffffffffffffffffffffffffffffffffff167fddf252ad1be2c89b69c2b068fc378daa952ba7f163c4a11628f55a4df523b3ef60405160405180910390a4611cab83838361210f565b505050565b6000600660009054906101000a900473ffffffffffffffffffffffffffffffffffffffff16905081600660006101000a81548173ffffffffffffffffffffffffffffffffffffffff021916908373ffffffffffffffffffffffffffffffffffffffff1602179055508173ffffffffffffffffffffffffffffffffffffffff168173ffffffffffffffffffffffffffffffffffffffff167f8be0079c531659141344cd1fd0a4f28419497f9722a3daafe3b4186f6b6457e060405160405180910390a35050565b611d90828260405180602001604052806000815250612114565b5050565b8173ffffffffffffffffffffffffffffffffffffffff168373ffffffffffffffffffffffffffffffffffffffff161415611e03576040517f08c379a0000000000000000000000000000000000000000000000000000000008152600401611dfa9061300f565b60405180910390fd5b80600560008573ffffffffffffffffffffffffffffffffffffffff1673ffffffffffffffffffffffffffffffffffffffff16815260200190815260200160002060008473ffffffffffffffffffffffffffffffffffffffff1673ffffffffffffffffffffffffffffffffffffffff16815260200190815260200160002060006101000a81548160ff0219169083151502179055508173ffffffffffffffffffffffffffffffffffffffff168373ffffffffffffffffffffffffffffffffffffffff167f17307eab39ab6107e8899845ad3d59bd9653f200f220920489ca2b5937696c3183604051611ef49190612ed2565b60405180910390a3505050565b611f0c848484611a49565b611f188484848461216f565b611f57576040517f08c379a0000000000000000000000000000000000000000000000000000000008152600401611f4e90612f2f565b60405180910390fd5b50505050565b60606000821415611fa5576040518060400160405280600181526020017f30000000000000000000000000000000000000000000000000000000000000008152509050612105565b600082905060005b60008214611fd7578080611fc0906134e3565b915050600a82611fd091906132f9565b9150611fad565b60008167ffffffffffffffff811115612019577f4e487b7100000000000000000000000000000000000000000000000000000000600052604160045260246000fd5b6040519080825280601f01601f19166020018201604052801561204b5781602001600182028036833780820191505090505b5090505b600085146120fe576001826120649190613384565b9150600a85612073919061352c565b603061207f91906132a3565b60f81b8183815181106120bb577f4e487b7100000000000000000000000000000000000000000000000000000000600052603260045260246000fd5b60200101907effffffffffffffffffffffffffffffffffffffffffffffffffffffffffffff1916908160001a905350600a856120f791906132f9565b945061204f565b8093505050505b919050565b505050565b505050565b61211e8383612306565b61212b600084848461216f565b61216a576040517f08c379a000000000000000000000000000000000000000000000000000000000815260040161216190612f2f565b60405180910390fd5b505050565b60006121908473ffffffffffffffffffffffffffffffffffffffff166124e0565b156122f9578373ffffffffffffffffffffffffffffffffffffffff1663150b7a026121b96118aa565b8786866040518563ffffffff1660e01b81526004016121db9493929190612e86565b602060405180830381600087803b1580156121f557600080fd5b505af192505050801561222657506040513d601f19601f8201168201806040525081019061222391906128cf565b60015b6122a9573d8060008114612256576040519150601f19603f3d011682016040523d82523d6000602084013e61225b565b606091505b506000815114156122a1576040517f08c379a000000000000000000000000000000000000000000000000000000000815260040161229890612f2f565b60405180910390fd5b805181602001fd5b63150b7a0260e01b7bffffffffffffffffffffffffffffffffffffffffffffffffffffffff1916817bffffffffffffffffffffffffffffffffffffffffffffffffffffffff1916149150506122fe565b600190505b949350505050565b600073ffffffffffffffffffffffffffffffffffffffff168273ffffffffffffffffffffffffffffffffffffffff161415612376576040517f08c379a000000000000000000000000000000000000000000000000000000000815260040161236d906130cf565b60405180910390fd5b61237f8161183e565b156123bf576040517f08c379a00000000000000000000000000000000000000000000000000000000081526004016123b690612faf565b60405180910390fd5b6123cb6000838361210a565b6001600360008473ffffffffffffffffffffffffffffffffffffffff1673ffffffffffffffffffffffffffffffffffffffff168152602001908152602001600020600082825461241b91906132a3565b92505081905550816002600083815260200190815260200160002060006101000a81548173ffffffffffffffffffffffffffffffffffffffff021916908373ffffffffffffffffffffffffffffffffffffffff160217905550808273ffffffffffffffffffffffffffffffffffffffff16600073ffffffffffffffffffffffffffffffffffffffff167fddf252ad1be2c89b69c2b068fc378daa952ba7f163c4a11628f55a4df523b3ef60405160405180910390a46124dc6000838361210f565b5050565b6000808273ffffffffffffffffffffffffffffffffffffffff163b119050919050565b82805461250f90613480565b90600052602060002090601f0160209004810192826125315760008555612578565b82601f1061254a57803560ff1916838001178555612578565b82800160010185558215612578579182015b8281111561257757823582559160200191906001019061255c565b5b5090506125859190612589565b5090565b5b808211156125a257600081600090555060010161258a565b5090565b60006125b96125b48461320f565b6131ea565b9050828152602081018484840111156125d157600080fd5b6125dc84828561343e565b509392505050565b6000813590506125f381613ba4565b92915050565b60008135905061260881613bbb565b92915050565b60008135905061261d81613bd2565b92915050565b60008135905061263281613be9565b92915050565b60008151905061264781613be9565b92915050565b600082601f83011261265e57600080fd5b813561266e8482602086016125a6565b91505092915050565b60008083601f84011261268957600080fd5b8235905067ffffffffffffffff8111156126a257600080fd5b6020830191508360018202830111156126ba57600080fd5b9250929050565b6000813590506126d081613c00565b92915050565b6000602082840312156126e857600080fd5b60006126f6848285016125e4565b91505092915050565b60006020828403121561271157600080fd5b600061271f848285016125f9565b91505092915050565b6000806040838503121561273b57600080fd5b6000612749858286016125e4565b925050602061275a858286016125e4565b9150509250929050565b60008060006060848603121561277957600080fd5b6000612787868287016125e4565b9350506020612798868287016125e4565b92505060406127a9868287016126c1565b9150509250925092565b600080600080608085870312156127c957600080fd5b60006127d7878288016125e4565b94505060206127e8878288016125e4565b93505060406127f9878288016126c1565b925050606085013567ffffffffffffffff81111561281657600080fd5b6128228782880161264d565b91505092959194509250565b6000806040838503121561284157600080fd5b600061284f858286016125e4565b92505060206128608582860161260e565b9150509250929050565b6000806040838503121561287d57600080fd5b600061288b858286016125e4565b925050602061289c858286016126c1565b9150509250929050565b6000602082840312156128b857600080fd5b60006128c684828501612623565b91505092915050565b6000602082840312156128e157600080fd5b60006128ef84828501612638565b91505092915050565b6000806020838503121561290b57600080fd5b600083013567ffffffffffffffff81111561292557600080fd5b61293185828601612677565b92509250509250929050565b60006020828403121561294f57600080fd5b600061295d848285016126c1565b91505092915050565b61296f816133ca565b82525050565b61297e816133b8565b82525050565b61298d816133dc565b82525050565b600061299e82613255565b6129a8818561326b565b93506129b881856020860161344d565b6129c181613619565b840191505092915050565b60006129d782613260565b6129e18185613287565b93506129f181856020860161344d565b6129fa81613619565b840191505092915050565b6000612a1082613260565b612a1a8185613298565b9350612a2a81856020860161344d565b80840191505092915050565b60008154612a4381613480565b612a4d8186613298565b94506001821660008114612a685760018114612a7957612aac565b60ff19831686528186019350612aac565b612a8285613240565b60005b83811015612aa457815481890152600182019150602081019050612a85565b838801955050505b50505092915050565b6000612ac2601083613287565b9150612acd8261362a565b602082019050919050565b6000612ae5603283613287565b9150612af082613653565b604082019050919050565b6000612b08601383613287565b9150612b13826136a2565b602082019050919050565b6000612b2b602683613287565b9150612b36826136cb565b604082019050919050565b6000612b4e602583613287565b9150612b598261371a565b604082019050919050565b6000612b71601c83613287565b9150612b7c82613769565b602082019050919050565b6000612b94602a83613287565b9150612b9f82613792565b604082019050919050565b6000612bb7602483613287565b9150612bc2826137e1565b604082019050919050565b6000612bda601983613287565b9150612be582613830565b602082019050919050565b6000612bfd602c83613287565b9150612c0882613859565b604082019050919050565b6000612c20600883613287565b9150612c2b826138a8565b602082019050919050565b6000612c43603883613287565b9150612c4e826138d1565b604082019050919050565b6000612c66602a83613287565b9150612c7182613920565b604082019050919050565b6000612c89602983613287565b9150612c948261396f565b604082019050919050565b6000612cac602083613287565b9150612cb7826139be565b602082019050919050565b6000612ccf602c83613287565b9150612cda826139e7565b604082019050919050565b6000612cf2600583613298565b9150612cfd82613a36565b600582019050919050565b6000612d15602083613287565b9150612d2082613a5f565b602082019050919050565b6000612d38602183613287565b9150612d4382613a88565b604082019050919050565b6000612d5b60008361327c565b9150612d6682613ad7565b600082019050919050565b6000612d7e603183613287565b9150612d8982613ada565b604082019050919050565b6000612da1601583613287565b9150612dac82613b29565b602082019050919050565b6000612dc4600f83613287565b9150612dcf82613b52565b602082019050919050565b6000612de7601583613287565b9150612df282613b7b565b602082019050919050565b612e0681613434565b82525050565b6000612e188285612a36565b9150612e248284612a05565b9150612e2f82612ce5565b91508190509392505050565b6000612e4682612d4e565b9150819050919050565b6000602082019050612e656000830184612975565b92915050565b6000602082019050612e806000830184612966565b92915050565b6000608082019050612e9b6000830187612975565b612ea86020830186612975565b612eb56040830185612dfd565b8181036060830152612ec78184612993565b905095945050505050565b6000602082019050612ee76000830184612984565b92915050565b60006020820190508181036000830152612f0781846129cc565b905092915050565b60006020820190508181036000830152612f2881612ab5565b9050919050565b60006020820190508181036000830152612f4881612ad8565b9050919050565b60006020820190508181036000830152612f6881612afb565b9050919050565b60006020820190508181036000830152612f8881612b1e565b9050919050565b60006020820190508181036000830152612fa881612b41565b9050919050565b60006020820190508181036000830152612fc881612b64565b9050919050565b60006020820190508181036000830152612fe881612b87565b9050919050565b6000602082019050818103600083015261300881612baa565b9050919050565b6000602082019050818103600083015261302881612bcd565b9050919050565b6000602082019050818103600083015261304881612bf0565b9050919050565b6000602082019050818103600083015261306881612c13565b9050919050565b6000602082019050818103600083015261308881612c36565b9050919050565b600060208201905081810360008301526130a881612c59565b9050919050565b600060208201905081810360008301526130c881612c7c565b9050919050565b600060208201905081810360008301526130e881612c9f565b9050919050565b6000602082019050818103600083015261310881612cc2565b9050919050565b6000602082019050818103600083015261312881612d08565b9050919050565b6000602082019050818103600083015261314881612d2b565b9050919050565b6000602082019050818103600083015261316881612d71565b9050919050565b6000602082019050818103600083015261318881612d94565b9050919050565b600060208201905081810360008301526131a881612db7565b9050919050565b600060208201905081810360008301526131c881612dda565b9050919050565b60006020820190506131e46000830184612dfd565b92915050565b60006131f4613205565b905061320082826134b2565b919050565b6000604051905090565b600067ffffffffffffffff82111561322a576132296135ea565b5b61323382613619565b9050602081019050919050565b60008190508160005260206000209050919050565b600081519050919050565b600081519050919050565b600082825260208201905092915050565b600081905092915050565b600082825260208201905092915050565b600081905092915050565b60006132ae82613434565b91506132b983613434565b9250827fffffffffffffffffffffffffffffffffffffffffffffffffffffffffffffffff038211156132ee576132ed61355d565b5b828201905092915050565b600061330482613434565b915061330f83613434565b92508261331f5761331e61358c565b5b828204905092915050565b600061333582613434565b915061334083613434565b9250817fffffffffffffffffffffffffffffffffffffffffffffffffffffffffffffffff04831182151516156133795761337861355d565b5b828202905092915050565b600061338f82613434565b915061339a83613434565b9250828210156133ad576133ac61355d565b5b828203905092915050565b60006133c382613414565b9050919050565b60006133d582613414565b9050919050565b60008115159050919050565b60007fffffffff0000000000000000000000000000000000000000000000000000000082169050919050565b600073ffffffffffffffffffffffffffffffffffffffff82169050919050565b6000819050919050565b82818337600083830152505050565b60005b8381101561346b578082015181840152602081019050613450565b8381111561347a576000848401525b50505050565b6000600282049050600182168061349857607f821691505b602082108114156134ac576134ab6135bb565b5b50919050565b6134bb82613619565b810181811067ffffffffffffffff821117156134da576134d96135ea565b5b80604052505050565b60006134ee82613434565b91507fffffffffffffffffffffffffffffffffffffffffffffffffffffffffffffffff8214156135215761352061355d565b5b600182019050919050565b600061353782613434565b915061354283613434565b9250826135525761355161358c565b5b828206905092915050565b7f4e487b7100000000000000000000000000000000000000000000000000000000600052601160045260246000fd5b7f4e487b7100000000000000000000000000000000000000000000000000000000600052601260045260246000fd5b7f4e487b7100000000000000000000000000000000000000000000000000000000600052602260045260246000fd5b7f4e487b7100000000000000000000000000000000000000000000000000000000600052604160045260246000fd5b6000601f19601f8301169050919050565b7f77726f6e67206d696e742076616c756500000000000000000000000000000000600082015250565b7f4552433732313a207472616e7366657220746f206e6f6e20455243373231526560008201527f63656976657220696d706c656d656e7465720000000000000000000000000000602082015250565b7f6d696e74696e67206e6f7420656e61626c656400000000000000000000000000600082015250565b7f4f776e61626c653a206e6577206f776e657220697320746865207a65726f206160008201527f6464726573730000000000000000000000000000000000000000000000000000602082015250565b7f4552433732313a207472616e736665722066726f6d20696e636f72726563742060008201527f6f776e6572000000000000000000000000000000000000000000000000000000602082015250565b7f4552433732313a20746f6b656e20616c7265616479206d696e74656400000000600082015250565b7f6e6f7420656e6f756768206e667473206c6566742c20706c65617365206c6f7760008201527f6572207175617469747900000000000000000000000000000000000000000000602082015250565b7f4552433732313a207472616e7366657220746f20746865207a65726f2061646460008201527f7265737300000000000000000000000000000000000000000000000000000000602082015250565b7f4552433732313a20617070726f766520746f2063616c6c657200000000000000600082015250565b7f4552433732313a206f70657261746f7220717565727920666f72206e6f6e657860008201527f697374656e7420746f6b656e0000000000000000000000000000000000000000602082015250565b7f736f6c64206f7574000000000000000000000000000000000000000000000000600082015250565b7f4552433732313a20617070726f76652063616c6c6572206973206e6f74206f7760008201527f6e6572206e6f7220617070726f76656420666f7220616c6c0000000000000000602082015250565b7f4552433732313a2062616c616e636520717565727920666f7220746865207a6560008201527f726f206164647265737300000000000000000000000000000000000000000000602082015250565b7f4552433732313a206f776e657220717565727920666f72206e6f6e657869737460008201527f656e7420746f6b656e0000000000000000000000000000000000000000000000602082015250565b7f4552433732313a206d696e7420746f20746865207a65726f2061646472657373600082015250565b7f4552433732313a20617070726f76656420717565727920666f72206e6f6e657860008201527f697374656e7420746f6b656e0000000000000000000000000000000000000000602082015250565b7f2e6a736f6e000000000000000000000000000000000000000000000000000000600082015250565b7f4f776e61626c653a2063616c6c6572206973206e6f7420746865206f776e6572600082015250565b7f4552433732313a20617070726f76616c20746f2063757272656e74206f776e6560008201527f7200000000000000000000000000000000000000000000000000000000000000602082015250565b50565b7f4552433732313a207472616e736665722063616c6c6572206973206e6f74206f60008201527f776e6572206e6f7220617070726f766564000000000000000000000000000000602082015250565b7f546f6b656e20646f6573206e6f74206578697374210000000000000000000000600082015250565b7f7769746864726177206661696c65640000000000000000000000000000000000600082015250565b7f657863656564206d6178207065722077616c6c65740000000000000000000000600082015250565b613bad816133b8565b8114613bb857600080fd5b50565b613bc4816133ca565b8114613bcf57600080fd5b50565b613bdb816133dc565b8114613be657600080fd5b50565b613bf2816133e8565b8114613bfd57600080fd5b50565b613c0981613434565b8114613c1457600080fd5b5056fea2646970667358221220fe84404b05e0ef576456aa6216a586c7cb7d4d46fed4cb3c12a3b8036b0f33ac64736f6c63430008040033",
    "linkReferences": {},
    "deployedLinkReferences": {}
}